{
  "contractName": "BridgeBase",
  "abi": [
    {
      "inputs": [
        {
          "internalType": "address",
          "name": "_token",
          "type": "address"
        }
      ],
      "stateMutability": "nonpayable",
      "type": "constructor"
    },
    {
      "anonymous": false,
      "inputs": [
        {
          "indexed": false,
          "internalType": "address",
          "name": "from",
          "type": "address"
        },
        {
          "indexed": false,
          "internalType": "address",
          "name": "to",
          "type": "address"
        },
        {
          "indexed": false,
          "internalType": "uint256",
          "name": "amount",
          "type": "uint256"
        },
        {
          "indexed": false,
          "internalType": "uint256",
          "name": "date",
          "type": "uint256"
        },
        {
          "indexed": false,
          "internalType": "uint256",
          "name": "nonce",
          "type": "uint256"
        },
        {
          "indexed": true,
          "internalType": "enum BridgeBase.Step",
          "name": "step",
          "type": "uint8"
        }
      ],
      "name": "Transfer",
      "type": "event"
    },
    {
      "inputs": [],
      "name": "admin",
      "outputs": [
        {
          "internalType": "address",
          "name": "",
          "type": "address"
        }
      ],
      "stateMutability": "view",
      "type": "function",
      "constant": true
    },
    {
      "inputs": [],
      "name": "nonce",
      "outputs": [
        {
          "internalType": "uint256",
          "name": "",
          "type": "uint256"
        }
      ],
      "stateMutability": "view",
      "type": "function",
      "constant": true
    },
    {
      "inputs": [
        {
          "internalType": "uint256",
          "name": "",
          "type": "uint256"
        }
      ],
      "name": "processedNonces",
      "outputs": [
        {
          "internalType": "bool",
          "name": "",
          "type": "bool"
        }
      ],
      "stateMutability": "view",
      "type": "function",
      "constant": true
    },
    {
      "inputs": [],
      "name": "token",
      "outputs": [
        {
          "internalType": "contract Itoken",
          "name": "",
          "type": "address"
        }
      ],
      "stateMutability": "view",
      "type": "function",
      "constant": true
    },
    {
      "inputs": [
        {
          "internalType": "uint256",
          "name": "amount",
          "type": "uint256"
        }
      ],
      "name": "burn",
      "outputs": [],
      "stateMutability": "nonpayable",
      "type": "function"
    },
    {
      "inputs": [
        {
          "internalType": "address",
          "name": "to",
          "type": "address"
        },
        {
          "internalType": "uint256",
          "name": "amount",
          "type": "uint256"
        },
        {
          "internalType": "uint256",
          "name": "otherChainNonce",
          "type": "uint256"
        }
      ],
      "name": "mint",
      "outputs": [],
      "stateMutability": "nonpayable",
      "type": "function"
    }
  ],
  "bytecode": "0x608060405234801561001057600080fd5b506040516107fe3803806107fe8339818101604052602081101561003357600080fd5b8101908080519060200190929190505050336000806101000a81548173ffffffffffffffffffffffffffffffffffffffff021916908373ffffffffffffffffffffffffffffffffffffffff16021790555080600160006101000a81548173ffffffffffffffffffffffffffffffffffffffff021916908373ffffffffffffffffffffffffffffffffffffffff16021790555050610729806100d56000396000f3fe608060405234801561001057600080fd5b50600436106100625760003560e01c8063156e29f61461006757806342966c68146100bf57806391dae519146100ed578063affed0e014610133578063f851a44014610151578063fc0c546a1461019b575b600080fd5b6100bd6004803603606081101561007d57600080fd5b81019080803573ffffffffffffffffffffffffffffffffffffffff16906020019092919080359060200190929190803590602001909291905050506101e5565b005b6100eb600480360360208110156100d557600080fd5b81019080803590602001909291905050506104ee565b005b6101196004803603602081101561010357600080fd5b8101908080359060200190929190505050610682565b604051808215151515815260200191505060405180910390f35b61013b6106a2565b6040518082815260200191505060405180910390f35b6101596106a8565b604051808273ffffffffffffffffffffffffffffffffffffffff1673ffffffffffffffffffffffffffffffffffffffff16815260200191505060405180910390f35b6101a36106cd565b604051808273ffffffffffffffffffffffffffffffffffffffff1673ffffffffffffffffffffffffffffffffffffffff16815260200191505060405180910390f35b6000809054906101000a900473ffffffffffffffffffffffffffffffffffffffff1673ffffffffffffffffffffffffffffffffffffffff163373ffffffffffffffffffffffffffffffffffffffff16146102a7576040517f08c379a000000000000000000000000000000000000000000000000000000000815260040180806020018281038252600a8152602001807f6f6e6c792061646d696e0000000000000000000000000000000000000000000081525060200191505060405180910390fd5b600015156003600083815260200190815260200160002060009054906101000a900460ff16151514610341576040517f08c379a000000000000000000000000000000000000000000000000000000000815260040180806020018281038252601a8152602001807f7472616e7366657220616c72656164792070726f63657373656400000000000081525060200191505060405180910390fd5b60016003600083815260200190815260200160002060006101000a81548160ff021916908315150217905550600160009054906101000a900473ffffffffffffffffffffffffffffffffffffffff1673ffffffffffffffffffffffffffffffffffffffff166340c10f1984846040518363ffffffff1660e01b8152600401808373ffffffffffffffffffffffffffffffffffffffff1673ffffffffffffffffffffffffffffffffffffffff16815260200182815260200192505050600060405180830381600087803b15801561041657600080fd5b505af115801561042a573d6000803e3d6000fd5b5050505060018081111561043a57fe5b7f27757542a5e1b9e8cef80f584e094d4eb63b9802f355c61b3640b71b618d5c8e3385854286604051808673ffffffffffffffffffffffffffffffffffffffff1673ffffffffffffffffffffffffffffffffffffffff1681526020018573ffffffffffffffffffffffffffffffffffffffff1673ffffffffffffffffffffffffffffffffffffffff1681526020018481526020018381526020018281526020019550505050505060405180910390a2505050565b600160009054906101000a900473ffffffffffffffffffffffffffffffffffffffff1673ffffffffffffffffffffffffffffffffffffffff16639dc29fac33836040518363ffffffff1660e01b8152600401808373ffffffffffffffffffffffffffffffffffffffff1673ffffffffffffffffffffffffffffffffffffffff16815260200182815260200192505050600060405180830381600087803b15801561059757600080fd5b505af11580156105ab573d6000803e3d6000fd5b50505050600060018111156105bc57fe5b7f27757542a5e1b9e8cef80f584e094d4eb63b9802f355c61b3640b71b618d5c8e33338442600254604051808673ffffffffffffffffffffffffffffffffffffffff1673ffffffffffffffffffffffffffffffffffffffff1681526020018573ffffffffffffffffffffffffffffffffffffffff1673ffffffffffffffffffffffffffffffffffffffff1681526020018481526020018381526020018281526020019550505050505060405180910390a260026000815480929190600101919050555050565b60036020528060005260406000206000915054906101000a900460ff1681565b60025481565b6000809054906101000a900473ffffffffffffffffffffffffffffffffffffffff1681565b600160009054906101000a900473ffffffffffffffffffffffffffffffffffffffff168156fea2646970667358221220ab7242b20586b23de8db4819f2846d48537a55827f603947a4e4064469c2cf0f64736f6c63430006020033",
  "source": "pragma solidity ^0.6.0;\n\nimport '@openzeppelin/contracts/token/ERC20/IERC20.sol';\nimport './Itoken.sol';\n\ncontract BridgeBase {\n  address public admin;\n  Itoken public token;\n  uint public nonce;\n  mapping(uint => bool) public processedNonces;\n\n  enum Step { Burn, Mint }\n  event Transfer(\n    address from,\n    address to,\n    uint amount,\n    uint date,\n    uint nonce,\n    Step indexed step\n  );\n\n  constructor(address _token) public {\n    admin = msg.sender;\n    token = Itoken(_token);\n  }\n\n  function burn(uint amount) external {\n    token.burn(msg.sender, amount);\n    emit Transfer(\n      msg.sender,\n      msg.sender,\n      amount,\n      block.timestamp,\n      nonce,\n      Step.Burn\n    );\n    nonce++;\n  }\n\n  function mint(address to, uint amount, uint otherChainNonce) external {\n    require(msg.sender == admin, 'only admin');\n    require(processedNonces[otherChainNonce] == false, 'transfer already processed');\n    processedNonces[otherChainNonce] = true;\n    token.mint(to, amount);\n    emit Transfer(\n      msg.sender,\n      to,\n      amount,\n      block.timestamp,\n      otherChainNonce,\n      Step.Mint\n    );\n  }\n}",
  "sourcePath": "/Users/gyan/Documents/ProjectGyan/LearningNewThings/AkashwaniBridgeSolidity/contracts/BridgeBase.sol",
  "compiler": {
    "name": "solc",
    "version": "0.6.2+commit.bacdbe57.Emscripten.clang"
  },
  "schemaVersion": "3.3.4",
  "updatedAt": "2021-05-01T13:54:30.866Z",
  "networkType": "ethereum",
  "devdoc": {
    "methods": {}
  },
  "userdoc": {
    "methods": {}
  }
}